{
  "contractName": "Auction",
  "abi": [
    {
      "inputs": [],
      "payable": false,
      "stateMutability": "nonpayable",
      "type": "constructor"
    },
    {
      "anonymous": false,
      "inputs": [
        {
          "indexed": false,
          "internalType": "address",
          "name": "highestBidderAddress",
          "type": "address"
        },
        {
          "indexed": false,
          "internalType": "uint256",
          "name": "highestAmount",
          "type": "uint256"
        }
      ],
      "name": "AuctionEnded",
      "type": "event"
    },
    {
      "anonymous": false,
      "inputs": [
        {
          "indexed": false,
          "internalType": "address",
          "name": "newHighestBidderAddress",
          "type": "address"
        },
        {
          "indexed": false,
          "internalType": "uint256",
          "name": "newHighestAmount",
          "type": "uint256"
        }
      ],
      "name": "HighestBidUpdated",
      "type": "event"
    },
    {
      "constant": true,
      "inputs": [],
      "name": "auctionEndTime",
      "outputs": [
        {
          "internalType": "uint256",
          "name": "",
          "type": "uint256"
        }
      ],
      "payable": false,
      "stateMutability": "view",
      "type": "function"
    },
    {
      "constant": true,
      "inputs": [],
      "name": "beneficiary",
      "outputs": [
        {
          "internalType": "address",
          "name": "",
          "type": "address"
        }
      ],
      "payable": false,
      "stateMutability": "view",
      "type": "function"
    },
    {
      "constant": true,
      "inputs": [],
      "name": "highest",
      "outputs": [
        {
          "internalType": "uint256",
          "name": "amount",
          "type": "uint256"
        },
        {
          "internalType": "address",
          "name": "bidder",
          "type": "address"
        }
      ],
      "payable": false,
      "stateMutability": "view",
      "type": "function"
    },
    {
      "constant": false,
      "inputs": [],
      "name": "endAuction",
      "outputs": [],
      "payable": false,
      "stateMutability": "nonpayable",
      "type": "function"
    },
    {
      "constant": false,
      "inputs": [],
      "name": "bid",
      "outputs": [],
      "payable": true,
      "stateMutability": "payable",
      "type": "function"
    },
    {
      "constant": false,
      "inputs": [],
      "name": "withdraw",
      "outputs": [],
      "payable": false,
      "stateMutability": "nonpayable",
      "type": "function"
    },
    {
      "constant": true,
      "inputs": [
        {
          "internalType": "address",
          "name": "account",
          "type": "address"
        }
      ],
      "name": "getBalance",
      "outputs": [
        {
          "internalType": "uint256",
          "name": "",
          "type": "uint256"
        }
      ],
      "payable": false,
      "stateMutability": "view",
      "type": "function"
    },
    {
      "constant": true,
      "inputs": [],
      "name": "getContractAccountBalance",
      "outputs": [
        {
          "internalType": "uint256",
          "name": "",
          "type": "uint256"
        }
      ],
      "payable": false,
      "stateMutability": "view",
      "type": "function"
    }
  ],
  "bytecode": "0x60806040526000600560006101000a81548160ff0219169083151502179055506000600560016101000a81548160ff02191690831515021790555034801561004657600080fd5b5033600360006101000a81548173ffffffffffffffffffffffffffffffffffffffff021916908373ffffffffffffffffffffffffffffffffffffffff160217905550620151804201600481905550604051806040016040528060008152602001600360009054906101000a900473ffffffffffffffffffffffffffffffffffffffff1673ffffffffffffffffffffffffffffffffffffffff16815250600080820151816000015560208201518160010160006101000a81548173ffffffffffffffffffffffffffffffffffffffff021916908373ffffffffffffffffffffffffffffffffffffffff160217905550905050610dd9806101466000396000f3fe60806040526004361061007b5760003560e01c8063b668e05d1161004e578063b668e05d14610123578063b82a793914610181578063f8b2cb4f146101ac578063fe67a54b146102115761007b565b80631998aeef1461008057806338af3eed1461008a5780633ccfd60b146100e15780634b449cba146100f8575b600080fd5b610088610228565b005b34801561009657600080fd5b5061009f6105d2565b604051808273ffffffffffffffffffffffffffffffffffffffff1673ffffffffffffffffffffffffffffffffffffffff16815260200191505060405180910390f35b3480156100ed57600080fd5b506100f66105f8565b005b34801561010457600080fd5b5061010d610805565b6040518082815260200191505060405180910390f35b34801561012f57600080fd5b5061013861080b565b604051808381526020018273ffffffffffffffffffffffffffffffffffffffff1673ffffffffffffffffffffffffffffffffffffffff1681526020019250505060405180910390f35b34801561018d57600080fd5b5061019661083d565b6040518082815260200191505060405180910390f35b3480156101b857600080fd5b506101fb600480360360208110156101cf57600080fd5b81019080803573ffffffffffffffffffffffffffffffffffffffff169060200190929190505050610845565b6040518082815260200191505060405180910390f35b34801561021d57600080fd5b5061022661090f565b005b6000800154610235610c7a565b1161028b576040517f08c379a000000000000000000000000000000000000000000000000000000000815260040180806020018281038252602e815260200180610cc4602e913960400191505060405180910390fd5b600560019054906101000a900460ff16156102f1576040517f08c379a000000000000000000000000000000000000000000000000000000000815260040180806020018281038252602e815260200180610cf2602e913960400191505060405180910390fd5b6001600560016101000a81548160ff021916908315150217905550600360009054906101000a900473ffffffffffffffffffffffffffffffffffffffff1673ffffffffffffffffffffffffffffffffffffffff163373ffffffffffffffffffffffffffffffffffffffff1614156103b3576040517f08c379a000000000000000000000000000000000000000000000000000000000815260040180806020018281038252602e815260200180610d45602e913960400191505060405180910390fd5b600560009054906101000a900460ff16806103d057504260045411155b15610443576040517f08c379a000000000000000000000000000000000000000000000000000000000815260040180806020018281038252600f8152602001807f41756374696f6e2065787069726564000000000000000000000000000000000081525060200191505060405180910390fd5b600061044d610c7a565b90506000800154600260008060010160009054906101000a900473ffffffffffffffffffffffffffffffffffffffff1673ffffffffffffffffffffffffffffffffffffffff1673ffffffffffffffffffffffffffffffffffffffff168152602001908152602001600020819055506000600260003373ffffffffffffffffffffffffffffffffffffffff1673ffffffffffffffffffffffffffffffffffffffff168152602001908152602001600020819055507f9d9b13916a8b7f30cc17b8f673a1978b7911617c1512be3922e579e6aa5d33a833600060010160006101000a81548173ffffffffffffffffffffffffffffffffffffffff021916908373ffffffffffffffffffffffffffffffffffffffff16021790558260008001819055604051808373ffffffffffffffffffffffffffffffffffffffff1673ffffffffffffffffffffffffffffffffffffffff1681526020018281526020019250505060405180910390a1506000600560016101000a81548160ff021916908315150217905550565b600360009054906101000a900473ffffffffffffffffffffffffffffffffffffffff1681565b6000600260003373ffffffffffffffffffffffffffffffffffffffff1673ffffffffffffffffffffffffffffffffffffffff1681526020019081526020016000205411610690576040517f08c379a0000000000000000000000000000000000000000000000000000000008152600401808060200182810382526032815260200180610d736032913960400191505060405180910390fd5b600560019054906101000a900460ff16156106f6576040517f08c379a000000000000000000000000000000000000000000000000000000000815260040180806020018281038252602e815260200180610cf2602e913960400191505060405180910390fd5b6001600560016101000a81548160ff02191690831515021790555060003390506000600260008373ffffffffffffffffffffffffffffffffffffffff1673ffffffffffffffffffffffffffffffffffffffff1681526020019081526020016000205490506000600260008473ffffffffffffffffffffffffffffffffffffffff1673ffffffffffffffffffffffffffffffffffffffff168152602001908152602001600020819055508173ffffffffffffffffffffffffffffffffffffffff166108fc829081150290604051600060405180830381858888f193505050501580156107e5573d6000803e3d6000fd5b5050506000600560016101000a81548160ff021916908315150217905550565b60045481565b60008060000154908060010160009054906101000a900473ffffffffffffffffffffffffffffffffffffffff16905082565b600047905090565b60008060010160009054906101000a900473ffffffffffffffffffffffffffffffffffffffff1673ffffffffffffffffffffffffffffffffffffffff16600360009054906101000a900473ffffffffffffffffffffffffffffffffffffffff1673ffffffffffffffffffffffffffffffffffffffff161461090557600260008373ffffffffffffffffffffffffffffffffffffffff1673ffffffffffffffffffffffffffffffffffffffff16815260200190815260200160002054610908565b60005b9050919050565b600360009054906101000a900473ffffffffffffffffffffffffffffffffffffffff1673ffffffffffffffffffffffffffffffffffffffff163373ffffffffffffffffffffffffffffffffffffffff16146109b5576040517f08c379a0000000000000000000000000000000000000000000000000000000008152600401808060200182810382526025815260200180610d206025913960400191505060405180910390fd5b600560019054906101000a900460ff1615610a1b576040517f08c379a000000000000000000000000000000000000000000000000000000000815260040180806020018281038252602e815260200180610cf2602e913960400191505060405180910390fd5b6001600560016101000a81548160ff021916908315150217905550600560009054906101000a900460ff1615610ab9576040517f08c379a000000000000000000000000000000000000000000000000000000000815260040180806020018281038252601c8152602001807f41756374696f6e2077617320616c72656164792066696e69736865640000000081525060200191505060405180910390fd5b600360009054906101000a900473ffffffffffffffffffffffffffffffffffffffff1673ffffffffffffffffffffffffffffffffffffffff16600060010160009054906101000a900473ffffffffffffffffffffffffffffffffffffffff1673ffffffffffffffffffffffffffffffffffffffff161415610b435760008060000181905550610bae565b600080015460026000600360009054906101000a900473ffffffffffffffffffffffffffffffffffffffff1673ffffffffffffffffffffffffffffffffffffffff1673ffffffffffffffffffffffffffffffffffffffff168152602001908152602001600020819055505b6001600560006101000a81548160ff0219169083151502179055507fdaec4582d5d9595688c8c98545fdd1c696d41c6aeaeb636737e84ed2f5c00eda600060010160009054906101000a900473ffffffffffffffffffffffffffffffffffffffff166000800154604051808373ffffffffffffffffffffffffffffffffffffffff1673ffffffffffffffffffffffffffffffffffffffff1681526020018281526020019250505060405180910390a16000600560016101000a81548160ff021916908315150217905550565b6000600260003373ffffffffffffffffffffffffffffffffffffffff1673ffffffffffffffffffffffffffffffffffffffff16815260200190815260200160002054340190509056fe596f75206861766520746f20626964206d6f72652074686174207468652070726576696f757320686967686573745468697320636f6e747261637420776173206265696e6720757365642c20706c656173652074727920616761696e4e6f7420616c6c6f77656420746f20706572666f726d2074686973206f7065726174696f6e5468652062656e65666963696172792063616e206e6f7420706172746963697061746520696e2074686520626964596f7520646f206e6f74206861766520697320616e792070656e64696e672062616c616e636520746f207769746864726177a265627a7a72315820fb4bdf0e390c8dd3a09382ac8ec3ad10e115d3e07886f5299a7b79384b1fd68964736f6c63430005100032",
  "source": "pragma solidity >=0.4.21 <0.7.0;\n\ncontract Auction {\n    // state variables\n    struct Highest {\n        uint amount;\n        address bidder;\n    }\n    \n    Highest public highest;\n    mapping (address => uint) balance;\n    address public beneficiary;\n    uint public auctionEndTime;\n    bool auctionEnded = false;\n    bool locked = false;\n\n    event HighestBidUpdated(address newHighestBidderAddress, uint newHighestAmount);\n    event AuctionEnded(address highestBidderAddress, uint highestAmount);\n\n    // constructor(uint auctionDurationDays, uint initialOffer) public {\n    constructor() public {\n        beneficiary = msg.sender;\n        auctionEndTime = block.timestamp + (1 * 1 days);\n        \n        highest = Highest({\n           amount: 0,\n           bidder: beneficiary\n        });\n    }\n\n    // modifiers\n    modifier onlyNewHighest {\n        require(getTotalBidderAmount() > highest.amount, 'You have to bid more that the previous highest');\n        _;\n    }\n    \n    modifier onlyBeneficiary {\n        require(msg.sender == beneficiary, 'Not allowed to perform this operation');\n        _;\n    }\n    \n    modifier noReentrant {\n        require(!locked, 'This contract was being used, please try again');\n        locked = true;\n        _;\n        locked = false;\n    }\n    \n    modifier onlyBalancePending {\n        require(balance[msg.sender] > 0, 'You do not have is any pending balance to withdraw');\n        _;\n    }\n\n    modifier exceptBeneficiary {\n        require(msg.sender != beneficiary, 'The beneficiary can not participate in the bid');\n        _;\n    }\n    \n    modifier auctionWasNotManuallyEnded {\n        require(!auctionEnded, 'Auction was already finished');\n        _;\n    }\n\n    // functions\n    function getTotalBidderAmount() private view returns(uint) {\n        return msg.value + balance[msg.sender];\n        // by default balance[msg.sender] = 0, this is to allow multiple bid from the same address\n    }\n    \n    function endAuction() external onlyBeneficiary noReentrant auctionWasNotManuallyEnded {\n        if (highest.bidder == beneficiary) {\n            highest.amount = 0;\n        } else {\n            balance[beneficiary] = highest.amount;\n        }\n        \n        auctionEnded = true;\n\n        emit AuctionEnded({\n            highestBidderAddress: highest.bidder,\n            highestAmount: highest.amount\n        });\n    }\n\n    function bid() external payable onlyNewHighest noReentrant exceptBeneficiary {\n        if (auctionEnded || auctionEndTime <= block.timestamp) {\n            revert('Auction expired');\n        }\n        \n        // WARNING: this function should always be called before \"balance[msg.sender] = 0;\"\n        uint totalAmount = getTotalBidderAmount();\n\n        balance[highest.bidder] = highest.amount;\n        balance[msg.sender] = 0; // in case of nth bid\n\n        emit HighestBidUpdated({\n            newHighestBidderAddress: highest.bidder = msg.sender,\n            newHighestAmount: highest.amount = totalAmount\n        });\n    }\n\n    function withdraw() external onlyBalancePending noReentrant {\n        address payable owner = msg.sender;\n        \n        uint amount = balance[owner];\n        balance[owner] = 0;\n        \n        owner.transfer(amount);\n    }\n    \n    function getBalance(address account) external view returns (uint) {\n        return beneficiary == highest.bidder ? 0 : balance[account];\n    }\n    \n    function getContractAccountBalance() external view returns (uint) {\n        return address(this).balance;\n    }\n}\n",
  "sourcePath": "/home/cristiantorres/Documents/cristian/projects/truffle/auction/contracts/Auction.sol",
  "compiler": {
    "name": "solc",
    "version": "0.5.16+commit.9c3226ce.Emscripten.clang"
  },
  "schemaVersion": "3.4.3",
  "updatedAt": "2021-09-23T03:35:07.579Z",
  "devdoc": {
    "methods": {}
  },
  "userdoc": {
    "methods": {}
  }
}